:020000040800F2
:1000000000300020212C0008D5280008D72800083F
:1000100000000000000000000000000000000000E0
:10002000000000000000000000000000D9280008C7
:100030000000000000000000DB280008DD280008A8
:10004000712C000800000000712C0008712C0008C1
:10005000712C0008712C0008712C0008E52800089C
:1000600000000000F1280008712C0008712C000825
:10007000712C000801290008712C00080000000004
:10008000712C00080000000000000000712C000826
:1000900000000000712C0008712C0008712C000871
:1000A00000000000712C000800000000712C000806
:1000B000712C00080000000000000000000000009B
:1000C00010B5064C2378002B07D1054B002B02D02E
:1000D000044800E000BF0123237010BD400400204D
:1000E00000000000A4670008044B10B5002B03D0EB
:1000F0000349044800E000BF10BDC04600000000F6
:1001000044040020A4670008002243088B4274D3F3
:1001100003098B425FD3030A8B4244D3030B8B4208
:1001200028D3030C8B420DD3FF22090212BA030C11
:100130008B4202D31212090265D0030B8B4219D3F2
:1001400000E0090AC30B8B4201D3CB03C01A524112
:10015000830B8B4201D38B03C01A5241430B8B425A
:1001600001D34B03C01A5241030B8B4201D30B0343
:10017000C01A5241C30A8B4201D3CB02C01A52416A
:10018000830A8B4201D38B02C01A5241430A8B422D
:1001900001D34B02C01A5241030A8B4201D30B0216
:1001A000C01A5241CDD2C3098B4201D3CB01C01A30
:1001B000524183098B4201D38B01C01A524143093A
:1001C0008B4201D34B01C01A524103098B4201D328
:1001D0000B01C01A5241C3088B4201D3CB00C01A95
:1001E000524183088B4201D38B00C01A524143080D
:1001F0008B4201D34B00C01A5241411A00D2014632
:10020000524110467047FFE701B5002000F0F0F8BA
:1002100002BDC0460029F7D076E7704703460B437E
:100220007FD4002243088B4274D303098B425FD3EF
:10023000030A8B4244D3030B8B4228D3030C8B421B
:100240000DD3FF22090212BA030C8B4202D3121201
:10025000090265D0030B8B4219D300E0090AC30BD6
:100260008B4201D3CB03C01A5241830B8B4201D383
:100270008B03C01A5241430B8B4201D34B03C01A6C
:100280005241030B8B4201D30B03C01A5241C30AE4
:100290008B4201D3CB02C01A5241830A8B4201D355
:1002A0008B02C01A5241430A8B4201D34B02C01A3F
:1002B0005241030A8B4201D30B02C01A5241CDD2E4
:1002C000C3098B4201D3CB01C01A524183098B422F
:1002D00001D38B01C01A524143098B4201D34B0118
:1002E000C01A524103098B4201D30B01C01A52417B
:1002F000C3088B4201D3CB00C01A524183088B4202
:1003000001D38B00C01A524143088B4201D34B00EA
:10031000C01A5241411A00D201465241104670475C
:100320005DE0CA0F00D04942031000D34042534061
:1003300000229C4603098B422DD3030A8B4212D321
:10034000FC22890112BA030A8B420CD38901921153
:100350008B4208D3890192118B4204D389013AD090
:10036000921100E08909C3098B4201D3CB01C01A65
:10037000524183098B4201D38B01C01A5241430978
:100380008B4201D34B01C01A524103098B4201D366
:100390000B01C01A5241C3088B4201D3CB00C01AD3
:1003A000524183088B4201D38B00C01A5241D9D2EB
:1003B00043088B4201D34B00C01A5241411A00D26C
:1003C0000146634652415B10104601D34042002B68
:1003D00000D54942704763465B1000D3404201B5E7
:1003E000002000F005F802BD0029F8D016E770479C
:1003F0007047C0468446100062468C46190063462A
:1004000000E0C0461FB501F011FB002801D4002117
:10041000C8421FBD10B501F061FA4042013010BD65
:1004200010B501F003FB002801DB002010BD012006
:1004300010BDC04610B501F0F9FA002801DD00201A
:1004400010BD012010BDC04610B501F089FA00288A
:1004500001DC002010BD012010BDC04610B501F028
:100460007FFA002801DA002010BD012010BDC0462F
:10047000844608006146FFE71FB500F06DFB0028C9
:1004800001D40021C8421FBD10B500F0F9FA404266
:10049000013010BD10B500F05FFB002801DB00202B
:1004A00010BD012010BDC04610B500F055FB00285E
:1004B00001DD002010BD012010BDC04610B500F0C8
:1004C00005FB002801DC002010BD012010BDC04646
:1004D00010B500F0FBFA002801DA002010BD012061
:1004E00010BDC0469E2110B5C905041CFFF7F0FFE2
:1004F000002803D1201C00F047FE10BD9E21201CC7
:10050000C90500F093FC00F03FFE80231B069C46CB
:100510006044F2E7F0B5C64643025B0A4E0245006E
:100520004F00DA00C40F9C46700A904600B52D0EAD
:100530003F0EC90FB6098C424BD0EA1B002A36DDAC
:10054000002F61D0FF2D00D1ADE08023DB041E43DE
:100550001B2A00DCD3E001204346181A430100D4D3
:100560008CE080018709380001F026FF05388740BC
:10057000854200DCB6E02D1AB3483840430704D06A
:100580000F230340042B00D00430430100D478E053
:100590006A1CFE2D65D08001430A9C46D2B2634698
:1005A000D0051843E407204380BCB846F0BD002ABC
:1005B00035D07A1B002D00D0AFE04346002B00D190
:1005C000A7E0531E012A00D12FE1FF2A69D01A00AB
:1005D000AAE0E91B002970DD002F37D0FF2D62D083
:1005E0008023DB041E431B2900DCB0E001204044D3
:1005F000430143D50135FF2D33D00123934A0340F6
:10060000400810401843B9E7002E00D183E0511E86
:10061000012A00D1D8E0FF2A45D00A0098E7FE273A
:100620006A1C174200D086E0002D00D0B7E0434698
:10063000002B00D1F3E00022002EB0D0981B430124
:1006400000D4FAE043460C00F01A97E7002E00D1E0
:10065000C8E04A1E012900D1AEE0FF2923D01100D5
:10066000C1E70023FF229C4699E7FE216A1C114244
:1006700077D0FF2AF5D0150046447008430700D014
:100680007EE7C308FF2D0ED05B025B0A9C46EAB2F0
:1006900085E7002E07D08022D203134203D01042F8
:1006A00001D10C000300002BDBD08020C0031843D5
:1006B0004002430A9C46FF2271E70029D5D07A1BED
:1006C000002D60D14346002B24D0531E012A73D045
:1006D000FF2AE7D01A001B2A00DC85E001203D003C
:1006E000801985E720233A00451B38000135EA4090
:1006F0005D1BA840431E9841002510433EE7202380
:1007000030009B1A31009840D140431E9841084365
:1007100022E70C0003001500B4E7FF2FC1D08023AF
:100720004046DB04184380461B2A51DD01200C00A3
:100730003D00301A12E743469F1B7B012BD4002F4C
:1007400000D010E70023002400229C4627E7202346
:1007500032003000CA40591A8840431E9841104365
:1007600045E7002D4AD14346002B63D00022002EDE
:1007700000D114E730004044430100D47EE7324BFF
:10078000013518407AE7FF2F8CD080234146DB04E7
:10079000194388469FE743460C00F71AE3E64246B2
:1007A000002A00D075E7002E00D07AE78023DB0313
:1007B00000249C46FF22F2E630004044012543011C
:1007C00000D45BE7022518E743460125981BC5E6E0
:1007D000202344464046D4409A1A9040431E9841F4
:1007E0002043A4E70D004DE7202341464046D14079
:1007F0009A1A9040431E9841084370E74246002AE7
:1008000000D14FE7002E00D14DE78022D2031342E2
:1008100000D148E7104200D045E7030043E7002E2F
:1008200090D00C0084460022B9E643460C00F01A32
:10083000013593E684460022B1E6002800D01DE78A
:10084000002300249C46AAE6FFFFFFFBFFFFFF7D7D
:10085000F0B54F464646D6464502C0B547000C1C8B
:100860006D0A3F0EC60F002F00D170E0FF2F00D1A0
:1008700075E0EB008025ED041D43002399469A4660
:100880007F3F6002430A984663001B0EE40F002B73
:100890004ED0FF2B46D04246D0008022D2040243E5
:1008A000904600227F3B3100FF1A4B466140C9B29F
:1008B00013430F2B00D9B5E06E489B00C3589F46E9
:1008C000002398462600454692465346022B00D107
:1008D00089E0032B00D19EE0012B18D03B007F3331
:1008E000002B69DD6A0704D00F222A40042A00D0B9
:1008F00004352A0103D5604B1D403B008033FE2B9D
:1009000000DD70E0AD016D0AD8B202E00E000020FB
:100910000025C0052843F6073043E0BCBA46B1467F
:10092000A846F0BD4346002B3FD10222FF3F03E023
:100930004346002B2DD1012231004B466140C9B204
:1009400013430F2B34D84D489B00C3589F46002DAE
:1009500013D104239946033B00279A4691E7002DC3
:1009600005D108239946063BFF279A4689E70C23C1
:100970009946093BFF279A4683E7280001F01CFDB2
:100980007627431F9D4000237F4299469A463F1A8F
:1009900077E7404601F010FD4246431F9A40762318
:1009A0005B4290461B1A00227DE7FF2303227AE771
:1009B0000E00FF200025ACE70120C01A1B28A6DC92
:1009C0009E372A00BD40C2406B1E9D4115436B07F8
:1009D00004D00F232B40042B00D004356B0144D5E9
:1009E0000120002595E7FF20002592E780250026BD
:1009F000FF20ED038DE7002398468020C0030542C9
:100A000009D04346034206D1454605436D02260000
:100A1000FF206D0A7DE78020C00305436D02FF20A3
:100A20006D0A76E742466B015001834219D21B22C0
:100A30000025013F01261C006D005B00002C01DB3E
:100A4000984201D81B1A3543013A002AF3D15A1EA5
:100A500093411D433B007F330E00002B00DD41E737
:100A6000AAE71A2201251B1AE4E7AD0100206D0A4E
:100A70004FE7C046BC670008FFFFFFF7FC670008B0
:100A800070B5420045024E024C00C30F6D0A0120B2
:100A9000120E760A240EC90FFF2A06D0FF2C03D0AF
:100AA000A24201D1B54206D070BD002DFCD1FF2C71
:100AB000FAD1002EF8D18B4206D00120002AF3D1C2
:100AC0002800431E9841EFE70020EDE770B5420093
:100AD00045024E024C00C30F6D0A120E760A240E18
:100AE000C80FFF2A1BD0FF2C0ED0002A1BD1002CD0
:100AF00001D1002E1CD0002D0CD083421CD002212D
:100B0000581E0840013870BD002E22D1002AF4D1B1
:100B1000002DF2D10028F6D101204042F3E7002D4C
:100B200017D1FF2CF0D0002CE7D1002EE5D1E6E75D
:100B30000020002DE7D0E2E7A24205DCEADBB54267
:100B400002D8E7D30020DEE7434258414000013895
:100B5000D9E702204042D6E770B5420045024E0276
:100B60004C00C30F6D0A120E760A240EC80FFF2A1E
:100B70000BD0FF2C0DD0002A1FD1002C16D1002E37
:100B800014D10020002D10D009E0002D0CD1FF2C35
:100B900013D1002E08D1002A08D0834212D002219E
:100BA000581E0840013800E0022070BD002DF4D12D
:100BB0000028FAD101204042F7E7002CEDD1002EA9
:100BC000EBD1ECE7A24205DCF2DBB54202D8EFD371
:100BD0000020EAE74342584140000138E5E7C046BB
:100BE000F0B54F464646D64644024500C0B5640AB5
:100BF0000F1C2D0EC60F002D00D18DE0FF2D00D152
:100C000092E00023802099469A46E400C004044301
:100C10007F3D7802430A98467B001B0EFF0F002B96
:100C200000D170E0FF2B00D186E04246D000802248
:100C30007F3BED180023D204024390469C463100CE
:100C40004B467940681C0F2B1CD8764A9B00D35822
:100C50009F4639004446E2465346022B0FD0032BF1
:100C600000D1D7E0012B37D100200024C00520435C
:100C7000C9070843E0BCBA46B146A846F0BDFF200C
:100C80000024F3E7260C2404220C44462404240CFC
:100C9000434627001B0C574374435A435E431219C3
:100CA0003B0C9B189C4203D9802252029446664416
:100CB0003F041A043F0CD2199401671EBC411B0C5F
:100CC000920E9B1914439B011C431B0100D49BE013
:100CD000012362081C40144302007F32002A64DDB5
:100CE000630704D00F232340042B00D004342301D6
:100CF00003D502004C4B80321C40FE2ABFDCA4010D
:100D0000640AD0B2B2E74346002B3DD14A460133D4
:100D10001A4391469C4692E7002C29D10423994618
:100D2000033B00259A4674E7002C1BD10823994603
:100D3000063BFF259A466CE74346FF35002B0BD157
:100D400002234A461A4391469C4678E753463100AF
:100D5000022B00D083E792E703234A461A439146C9
:100D60009C466CE70C239946093BFF259A4650E7C1
:100D7000200001F021FB7625431F9C4000236D429B
:100D800099469A462D1A44E7404601F015FB424623
:100D9000431F9A4000232D1A90469C46763D4EE70D
:100DA00080240021FF20E40360E701239B1A1B2B12
:100DB00000DD59E722009E30DA4084401300621EB5
:100DC00094411C43630704D00F232340042B00D01D
:100DD000043463011AD50120002447E78020C003B2
:100DE000044209D04346034206D144460443640208
:100DF0003900FF20640A39E78020C00304436402FD
:100E00003100FF20640A31E7280065E7A4010020D3
:100E1000640A2BE78020C00304436402FF20640AB5
:100E200024E7C0463C680008FFFFFFF7F8B5CE4650
:100E3000474643025B0A4E02DA009446720A914624
:100E400045004A0080B52D0E1F00C40F120EC90FB9
:100E5000B609FF2A5BD0012041408C4239D0A81A44
:100E600000285ADD002A6AD0FF2D00D1D9E0802267
:100E7000D20416431B2800DCE9E001206346181A5F
:100E8000430100D4B4E080018709380001F094FAEE
:100E900005388740854200DCCCE02D1AB548384043
:100EA000430704D00F230340042B00D00430430138
:100EB00000D4A0E06A1CFE2D00D18DE08001470A1D
:100EC000D2B2D0053843E4072043C0BCB946B0468F
:100ED000F8BDA81A8046002845DD002A70D0FF2DF5
:100EE00000D19EE08023DB041E4343461B2B00DC25
:100EF000D2E00120604443017AD50135FF2D6BD04B
:100F000001239D4A0340400810401843C8E7002EC3
:100F100020D08C4223D02800FF38002839D0571B1E
:100F2000002D00D09DE06346002B00D1DBE07B1E4E
:100F3000012F00D10DE1FF2F71D01F0098E0002E8E
:100F400000D1A7E0421E012800D1E6E0FF2868D0CA
:100F500010008FE701204140A14200D07FE7FF2031
:100F600040428046A8444046002838D0511B002DFE
:100F700000D1AEE0FF2A00D1DFE080236046DB0431
:100F8000184384461B2900DCD9E001201500801994
:100F9000B1E7FE206A1C104271D1002D00D0A6E0FE
:100FA0006346002B00D1D9E00022002E00D188E753
:100FB000981B430100D4E1E063460C00F01A6FE790
:100FC000002E00D1B7E00200013A012800D19CE0D8
:100FD000FF2826D0904688E7FF22002771E7FE20F1
:100FE0006A1C104264D0FF2AF6D0150066447008CF
:100FF000430700D056E7C308FF2D12D05B025F0AFB
:10100000EAB25EE76246002A00D196E0002E08D0E0
:101010008022D203134204D04846104201D10C0072
:101020004B46002BD8D08027FF031F437F02FF22AF
:101030007F0A46E720233A00451B38000135EA4085
:101040005D1BA840431E98410025104328E720233C
:101050001B1A32009E40C2403000431E984110438C
:101060000CE7FF2ADBD080236046DB04184384466C
:101070001B2F56DD01200C001500301A00E76346D7
:101080009F1B7B013DD4002F00D0FEE600240022F0
:10109000002716E70500AFE7320043464146DA4035
:1010A00020235B1A9E403000431E9841104321E7E5
:1010B000002DA7D16346002B59D00022002E00D16D
:1010C000FFE630006044430192D52A4B01351840B9
:1010D0008EE76346002B47D04B1E012915D0FF2910
:1010E0002BD019004EE70C004B463D0084E76246CA
:1010F000002A8BD1002E92D180270024FF22FF03EB
:10110000DFE663460C00F71ABFE6300060440125B5
:10111000430100D46CE70225F2E663460125981BE3
:10112000AEE6202364466046FC40DF1BB840431E09
:10113000984120439FE705005EE74B4671E7202377
:1011400065466046CD40591A8840431E9841284361
:101150001CE763460C000125F01A91E6002E95D09D
:101160000C004F460022ACE64B460D0044E74F46CC
:101170000022A6E6FFFFFFFBFFFFFF7D002800D057
:1011800036E7002400279CE641024200C30F490ACB
:101190000020120E7E2A03DD9D2A02DD094A9818DE
:1011A0007047802000040143952A07DC9620821AAC
:1011B000D1404842002BF3D10800F1E7963A914024
:1011C000F7E7C046FFFFFF7FF8B5002813D0C3172D
:1011D000C6185E40C40F300001F0EEF89E230500F3
:1011E0001B1A962B0FDC082801DD083DAE40760265
:1011F000760AD8B202E0002400200026C005304361
:10120000E4072043F8BD992B0CDD05223100121AAA
:10121000D1400A00010030001B318840411E884146
:1012200002431600052D12DC31000D4F39407207C4
:1012300009D00F203040042805D004314A0102D5DE
:101240009F2339405B1B89014E0AD8B2D6E76A1F3B
:1012500096403100024F39407207F4D0E9E7C046AA
:10126000FFFFFFFBF0B54F464646D6460D00040093
:10127000C0B51F0011002803620F400A10437A0016
:10128000520DE3003C039146640AFA0F4F0F6E00C3
:1012900027439246B846760DED0FC900954200D11E
:1012A00099E04C46341BA446002C00DC7CE04A4606
:1012B000002A00D1B8E0C54A964200D11CE1802244
:1012C0003C0012041443A0466246382A00DD61E166
:1012D0001F2A00DDCCE164462022121B44469440C4
:1012E0000F00A14664469140E7404C464A1E91419A
:1012F0003C43424621436446E240801A5C1AA342C2
:101300009B415F42C71B3B0200D4D0E07F027F0AB3
:10131000002F00D1FFE0380001F04EF8010008393D
:10132000202322005B1A8F40DA408C401743B142E1
:1013300000DAFFE0891B4B1C1F2B00DDA8E02022F8
:101340003900D21A200094409140D840621E944146
:10135000DF40002601430C43630709D00F232340DD
:10136000042B05D0231DA342A44164423F191C0055
:101370003B0200D49EE0954B01369E4200D1B7E07F
:10138000934AE40817407B0771057F0223433F0B14
:101390004A0D12053A43ED072A4318001100E0BC3C
:1013A000BA46B146A846F0BD002C4BD04C46A41B13
:1013B000A446002E00D023E104001C4300D1AFE17D
:1013C0006246541E012A00D115E2804DAC4500D181
:1013D000C8E1A4461BE14A46B21A9446002A00DC42
:1013E000ACE04A46002A43D0784A964200D1AFE1A9
:1013F00080223C0012041443A0466246382A67DC6F
:101400001F2A00DC5FE14746203AD7406246202A87
:1014100005D064464022121B4446944021434A1E94
:1014200091410C003C4357E03A000A4300D105E1EA
:101430002200013A012C00D182E1644CA4455BD02A
:10144000944641E7634C771C274200D0C4E0040077
:101450001C43002E00D069E1002C00D1BFE14446BE
:101460000C4300D0D0E14207DB081343C00829E059
:101470003A000A4300D170E162466446013A012C09
:1014800000D1E0E0514CA44500D161E19446B4E7BD
:101490003A001F39CA401100202B03D04022D31A32
:1014A0009F403C43631E9C41002700260C4363077A
:1014B00000D053E7B446E4087B072343F808434AC7
:1014C00094451DD06246070352053F0B520D60E75D
:1014D00044460C43621E9441E4189C429B415F4287
:1014E0003F183B02E3D5394B01369E4200D0B5E0B0
:1014F0003200002700234CE74207DB081343C008F3
:101500001A00024300D1E1E180273F0307433F0374
:101510002E4A3F0B3DE7200000F04EFF010018313E
:101520001F2900DCFCE60838844027000024B14273
:1015300000DBFFE6264A761A17400DE7002A2FD077
:101540004A46921B9446002E00D1ADE01F4A9145B9
:1015500000D10FE18022120410436246382A00DDD8
:101560000FE11F2A00DD80E1644620221E00121BCD
:101570006746040093409440FE405A1E9341F84051
:1015800034431C43804464188C42BF417F424E4622
:101590004744A6E742460A4311004A1E9141ADE680
:1015A0000C4C721C224200D0A1E002001A43002E13
:1015B00000D0FAE0002A00D145E13A000A4300D009
:1015C00046E14207DB081343C0087BE7FF07000042
:1015D000FFFF7FFFFE07000047465C1AC21BA342C5
:1015E000BF417F42B94617004A46BF1A3A0200D5AA
:1015F0008DE023003B4300D08AE60020002561E710
:10160000B44CA14500D1ADE08024240420436446BD
:10161000382C3DDC62461F2C00DDB7E020251E0083
:101620002D1B0400AB40AC40D640D04042465D1E6E
:10163000AB413443121A904623432CE04207DB08A7
:101640001343C0083BE75C189C429B4140445B420B
:10165000C71801263B0200D429E702269E4A6308E8
:101660001740012214401C43FB071C437F0873E60C
:101670004446203AD4406246202A05D0674640229C
:10168000D21B4746974039434A1E9141214335E6D4
:101690000343581E8341CC1AA142BF4143467F42B7
:1016A00055464E46DF1B2EE602001A4300D1BDE030
:1016B00062466446013A012C00D1E5E0854CA44520
:1016C00058D0944649E764462022121B4446944071
:1016D0000F00A14664469140E7404C464A1E9141A6
:1016E0003C4342460C436146CA408018F4E6794CBC
:1016F000A24200D1FDE6591899429B4140445F4205
:10170000C719FC07490816000C437F08CFE6CC1A1E
:10171000A142BF4143467F42181A5546C71BF7E511
:10172000C9087B0755460B43F808C8E6002C00D0D3
:1017300081E043460B4315D1802000250003E3E6FA
:101740005C1AA3429B41C71B5B420126FF1ADAE5E4
:101750004207DB081343C008D2E64207DB08134305
:10176000C008ACE643464246C9085B0755460B43F2
:10177000D008C5E6434642465B07C9080B43D0087C
:10178000BEE603431C00631E9C41FCE60200203CB5
:10179000E24014006246202A03D04025AD1AA8403A
:1017A0000343581E8341234375E7002AE2D03A00E1
:1017B0000A43CDD04207DB0813438022C00812033E
:1017C000104206D0FC08144203D12000CB087A074F
:1017D00013435A0FDB005207DB08134390E64346DE
:1017E0000B4300D109E743464246C9085B0755460B
:1017F0000B43D00866E6CC1AA14289413F1A494200
:10180000554601267F1A7EE542465C1A871AA34296
:1018100092415242BF1A3A023DD5CC1AA1428941A7
:10182000434649421F1A55467F1A95E57B07C9086A
:101830000B43F80843E64446DB080C4330D142072B
:101840001343C0085CE67B07C9080B43F80839E678
:101850005C189C429B4140445B42C7183B0200D449
:1018600025E61D4B01261F4021E60400203AD44006
:101870006246202A04D040226646921B90400343D1
:101880005A1E93411C437EE65C188C4289414044B9
:1018900049424718DDE623003B4300D1ADE606E6AA
:1018A000440723438024C0082403204208D0424632
:1018B000D608264204D155463000CB0851070B43C9
:1018C0005A0FDB00DB085207134319E60023014AD5
:1018D0001F005EE5FF070000FFFF7FFFF0B54E46EB
:1018E0004546DE4657469046E0B517001A03120BF0
:1018F0000500844619480E034C0091465A00DB0F40
:101900009B46360B640DC90F520D844219D082429A
:1019100010D0012094420ED14E450CD10120C44577
:1019200009D1594517D0002C05D130002843431E5A
:10193000984100E00120F0BCBB46B246A946A04653
:10194000F0BD330001202B43F5D1A242F3D14B4629
:101950003B43F0D1E2E70020EDE7C046FF0700007F
:10196000F0B54746CE460400180016001B031B0BBB
:101970002D4D4A00994680B543000F03A446B0465A
:101980003F0B520DC90F5B0DC00FAA4221D0AB42D5
:1019900013D0002A22D13C43002B02D14D462E43C6
:1019A00022D0002C10D0814222D0022001390840E0
:1019B0000138C0BCB946B046F0BD4D462E4329D1D2
:1019C000002AF0D13C43EED10028F2D10120404260
:1019D000EFE73D0025431DD19342EED0002BE2D12D
:1019E0004C462643DFD1E0E70020002CE1D0DCE7C5
:1019F0009A420ADCE8DB4F45D7D80ED000204F458D
:101A0000D7D20029E2D00800D3E743425841400032
:101A10000138CEE702204042CBE7C445C5D80020BC
:101A2000C445C6D2EDE7C046FF070000F0B5474603
:101A3000CE460400180016001B031B0B2C4D4A0059
:101A4000994680B543000F03A446B0463F0B520DA4
:101A5000C90F5B0DC00FAA420DD0AB4210D0002AB7
:101A600027D13C43002B11D14D462E430ED10020EF
:101A7000002C15D00EE03D00254310D1934218D123
:101A80004D462E430BD1002A02D13C43002C0BD0F3
:101A9000814214D0022001390840013800E00220C0
:101AA000C0BCB946B046F0BD0028F9D10120404283
:101AB000F6E7002BECD14C462643E9D1EAE79A42FF
:101AC00004DD4342584140000138E9E79A42EBDB2C
:101AD0004F45DFD806D000204F45E1D20029E5D0A0
:101AE0000800DDE7C445D5D80020C445D8D2F5E7C5
:101AF000FF070000F8B557464E464546DE46E0B5BE
:101B00001E0017004A000B03520D5B0A9046420F5D
:101B10001A43CD0FCD4C3103C300944670007A0FA9
:101B2000490AFF009A46B946400DF60F1143A042FC
:101B300000D1B1E001225640B346B54200D188E061
:101B40004246121A002A00DCAEE0002800D1C1E0B3
:101B5000BE48804500D151E1802000040143382A6D
:101B600000DD7BE11F2A00DDEEE120203E00801A2F
:101B70000C00D640D140874062468440521A781EFD
:101B80008741944634432743DC1BA3429B41624672
:101B90005B42D31A99464B461B0200D418E14B46D0
:101BA0005802430A99464B46002B00D137E148467C
:101BB00000F002FC010008392023220048465B1A8D
:101BC000DA4088408C4043461043884500DD36E1CA
:101BD000C91A4B1C1F2B00DDEAE020222600D21A76
:101BE00001009440DE40D84000239140621E9441A1
:101BF0008146984631430C43630709D00F232340A5
:101C0000042B05D0231DA342A4416442A1441C001F
:101C10004B461B0200D4DEE041468C4B0131994219
:101C200000D1E7E04B468A48E40803401800490524
:101C30005B07400223434A0D040B1205ED072243C4
:101C40002A4318001100F0BCBB46B246A946A04684
:101C5000F8BD4246121A002A52DD002800D19CE04D
:101C6000A04500D1CAE0802000040143382A00DDED
:101C700049E11F2A00DC97E110000E002038C64021
:101C8000202A04D04020821A91400F43B9464C4686
:101C9000621E944134433AE10A003A4328D0B346E5
:101CA000B5422BD06B4A4244002A5DD0424644469E
:101CB000821A002C00D0F5E065461D4300D19CE15E
:101CC000551E012A00D1FBE1604CA24200D1BDE1CA
:101CD0002A00F0E00800384300D1C3E0501E012A7A
:101CE00000D1A8E1594CA24200D187E0020036E7BA
:101CF00001225640B346B54200D021E7554A42443E
:101D0000002A00D1B5E042464446821A002C00D198
:101D100038E14E4EB04200D1DEE180266446360402
:101D20003443A446382A00DD96E11F2A00DD24E270
:101D30002026B41AA24664465646B440A1461C006A
:101D40004E46D440264334005646B3405E1EB3414F
:101D50001C436346D340C918E419BC42BF417F42CB
:101D6000B94680468944D8E040463B4C0130204289
:101D700000D0B4E04046002800D044E1604618435B
:101D800000D190E10800384300D0AAE16146DB08A9
:101D900049070B436146CC0827E00800384361D06F
:101DA000501E012A00D139E1A24227D002005DE78E
:101DB00002001F39CA401100202B03D04022D31A41
:101DC00098400443631E9C410023994698460C4367
:101DD000630700D012E74B464A46E4085B072343FB
:101DE000D408424619498A420ED024035205240BD6
:101DF000520D22E70A00002400231EE7DB0862469A
:101E0000520713436246D4081A00224300D1FCE172
:101E100080221203144324030C4A240B0DE72000F4
:101E200000F0CAFA010018311F2900DCC4E60838A6
:101E30008440434620000024884500DCC8E6044A6C
:101E40005B1A104098468146D6E6C046FF07000060
:101E5000FFFF7FFF01F8FFFFFE0700000F437A1E20
:101E6000974191E66146DB0849070B436146CC0880
:101E7000B8E74046D34C0130204200D0A2E04046B3
:101E8000002800D001E16046184300D15EE108005F
:101E9000384300D05FE16146DB0849070B436146E8
:101EA000CC08A2E7C84DA84200D1CFE08025644607
:101EB0002D042C43A446382A56DC1F2A00DDD1E02D
:101EC00020251E00AD1A6446AB40AC40D6405D1ED6
:101ED000AB41344323436446D440091B49E0604688
:101EE000DC1B461AA34280414042814630004E46E8
:101EF000801B8146000276D44B46234300D052E635
:101F00000024002571E739430C00621E9441E41857
:101F10009C429B415B42634499464B461B0200D462
:101F200056E701239C46A84BE044984538D04B46E1
:101F3000A648012203401800630814401C43C3074D
:101F40001C434308994657E610000E002038C6404F
:101F5000202A04D04020821A91400F43B9464F46B0
:101F60007A1E974137430FE662461A4313005A1E02
:101F70009341FC1AA742BF417F42CB1B99465D4665
:101F8000804608E666461E4300D1BEE0561E012A82
:101F900000D109E18C4CA24200D119E13200C1E626
:101FA00042460024002348E620200C00801A3E0010
:101FB00087408440D640781E8741D14034433C431B
:101FC0008C44A4E7804A904200D1E9E0DF199F42A7
:101FD0009B4161445B42C918CC077F084B08994676
:101FE00080463C43F4E6FC1AA742BF4163467F4269
:101FF000C91ACB1B99465D46D5E5FF084B075D46E0
:102000003B43CC08EEE662461A4300D082E00B0068
:102010003B431BD1802400252403F9E6DC199C42B4
:102020009B41614489465B4299444B461B0244D420
:1020300001239846CCE6DC1B6246A3429B41511A21
:102040005B42CB1A994601239846A4E5FF084B074B
:102050005D463B43CC08D7E662461A431400631E34
:102060009C4179E615006446203DEC40A046202ABC
:1020700005D040256446AA1A944023439A46544604
:10208000631E9C414346234373E762461A4323D0B1
:102090000A003A4300D0A0E06246DB08520713432F
:1020A0006246D408B0E60B003B4300D128E7FF08A6
:1020B0004B075D463B43CC0897E60223984636E73C
:1020C000FC1AA742BF4163467F42C91ACB1B9946FF
:1020D00001235D4698465EE54B07FF083B43CC086D
:1020E00092E6DC1B6046A342B641401A7642801B52
:1020F0008146000260D5FC1AA742BF4163467F4279
:10210000C91ACB1B99465D4676E5FF084B073B4352
:10211000CC0867E60A00DB083A4300D16FE6624666
:10212000520713436246D40880221203144207D098
:10213000C808104204D15D460400FB0849070B4360
:102140005A0FDB00DB08520713435DE64B07FF081D
:102150003B43CC0849E6DC199C429B4161448946DB
:102160005B4299444B461B0200D431E64A46174B6A
:102170001A400123914698462AE616006446203EFE
:10218000F440A046202A05D040266446B21A944066
:1021900023439A465446631E9C4143461C43DBE559
:1021A00002000024002348E5DC19BC42BF41614421
:1021B00089467F42B94438E74B46234300D19FE626
:1021C00006E6C046FE070000FF070000FFFF7FFF96
:1021D000FF084B073B43CC0816E66246DB08520774
:1021E00013436246D40880221203144207D0C80861
:1021F000104204D15D460400FB0849070B435A0F07
:10220000DB005207DB081343FEE50023014A1C00F4
:1022100013E5C046FF07000070B543004602C40F37
:10222000FE201B0E591C750A08420CD0E0229200B9
:1022300094466D07360B63441B053343E407234381
:102240002800190070BD002B14D1002D1BD02800D0
:1022500000F0B2F80A281CDC0B232E001B1ADE400B
:10226000030015339D400E4A3603121A5205360BF1
:10227000530DE1E7002D09D08022360B1203094BE4
:102280006D071643D8E700230026D5E70026054B47
:10229000D2E703000B3B9D402E000025E3E7C0463C
:1022A00089030000FF07000002004B00F0B55B0D42
:1022B0000C033D4E640A400F5F1CC90F0443D50058
:1022C00037420AD039481E18FE2E16DDFF200024A2
:1022D000C0052043C9070843F0BD002B06D12C439D
:1022E00026D005229201540AD8B2F1E72543EDD059
:1022F0008020C0030443FF20EAE7002E1BDD92018B
:10230000531E9A41E4006D0F22432A43530748D0DD
:102310000F231340042B00D004328023DB0413402E
:102320003FD0701CFE2ED1D09201540AC0B2CFE72C
:1023300000200024CCE73200173222DB802000048A
:1023400020431E24A41B1F2C1DDD02225242961B7B
:102350000200F2401600202C04D0154A9446634433
:10236000984005432A00531E9A41324300265307E2
:10237000CED180241300E404012023402242D3D193
:10238000B0E70023ADE70B4A94462A00E240140070
:102390002A0063449A409840551EAA4102432243B2
:1023A000E4E733009EE7C046FE07000080FCFFFF25
:1023B000A2FCFFFF82FCFFFF1C2101231B049842AB
:1023C00001D3000C10391B0A984201D3000A0839C6
:1023D0001B09984201D30009043902A2105C40187D
:1023E0007047C04604030202010101010000000021
:1023F0000000000000B585B00C22002101A803F008
:102400007FF92348234B03608023DB0543600023CF
:102410008360C360802292030261042242610376DA
:1024200043768376023AC2611E3283548822D200F8
:102430004262403A826201222C2142540363426389
:1024400082633B328354C36400F05EFC002816D1E3
:102450000123019300230293039301A90C4800F088
:10246000DDFD00280ED10C4B01930423029301A93A
:10247000074800F0D3FD002807D105B000BD00F0EB
:102480008FF9E5E700F08CF9EDE700F089F9F4E762
:102490005C040020002401400200000430B58FB02D
:1024A00004001422002109A803F02AF91C220021AB
:1024B00002A803F025F9244B22689A4201D00FB0FC
:1024C00030BD8023DB01029302A801F09FFD0028AC
:1024D00034D11E4B196C80204003014319641A6CDF
:1024E00002400092009A596B0122114359635B6BC1
:1024F0001A400192019B032309930A9300250B952F
:10250000A02009A9C00501F045F91148114B03604D
:10251000052343608560C5607B330361803343617D
:102520008023DB0083612023C361056201F024F86E
:10253000002806D1064B23659C62C0E700F030F905
:10254000C7E700F02DF9F5E7002401400010024034
:10255000C00400200800024000B583B0094A916B16
:10256000012319439163926B13400193019B002255
:102570000021092000F054FF092000F081FF03B082
:1025800000BDC04600100240F0B58BB014220021FF
:1025900005A803F0B5F8234B596B04221143596386
:1025A000596B0A400192019A5A6B20252A435A63BB
:1025B0005A6B2A400292029A5A6B012422435A63B0
:1025C0005A6B22400392039A596B022211435963BA
:1025D0005B6B1A400492049BA026F6050122202181
:1025E000300001F0B5F980239B0105930E4B069353
:1025F0000027079705A90D4801F0CCF8059506942A
:1026000007970323089305A9300001F0C3F80022BF
:102610000021072000F004FF072000F031FF0BB07D
:10262000F0BDC0460010024000001110000800502C
:1026300010B51448144B0360144B436000238360AF
:102640000122C260036143618361C361036201F0DF
:102650009FF900280CD100210A4801F0FFF9002859
:1026600009D10021074801F025FA002806D110BD44
:1026700000F096F8EFE700F093F8F2E700F090F83A
:10268000F5E7C0461C050020005400405D3E3020A8
:1026900010B58EB004001422002109A803F030F810
:1026A0001C22002102A803F02BF82268174B9A4243
:1026B00001D00EB010BD4023029302A801F0A6FC89
:1026C000002820D1124C626B02231A436263626BB2
:1026D00013400093009BC0239B00099312230A938D
:1026E00000230B930C9306330D9309A9094801F0BD
:1026F00051F8E26B802189030A43E263E36B0B40EC
:102700000193019BD5E700F04BF8DBE70054004054
:10271000001002400004005070B51A4C2069FFF709
:102720007BFD194A194BFEF79DFDFFF7BDFD2061AA
:10273000FFF772FD04000D00154A164BFDF78EFEE3
:10274000002809D0124A134B20002900FFF7D2F9C4
:10275000FFF7AAFD0B4B186102F0A4FD0E4D0F4BC5
:102760001C682868FDF7BEFE80B260636868FDF7EC
:10277000B9FE80B2A063A868FDF7B4FE80B2E06342
:1027800070BDC046500600207B14AE47E17A843FFE
:102790004AD8124DFB211940700600207005002018
:1027A00072B6FEE700B58DB01C22002105A802F02C
:1027B000A7FF14220021684602F0A2FF022305931E
:1027C000FE330893C03B0A9305A801F09DF9002849
:1027D0000ED10723009300230193029303930493E4
:1027E0000121684601F030FB002803D10DB000BD87
:1027F000FFF7D6FFFFF7D4FF10B500F067FAFFF739
:10280000D1FFFFF7C1FEFFF7A7FEFFF7F3FDFFF7CC
:102810000FFF00F0E1F800F089F9194B00200021CA
:1028200018605960002017499860D960164A9A616B
:10283000164A5A6102221649164800F093FD164BBB
:10284000164ADA62164C0021200002F0ABF804218F
:10285000200002F0A7F80821200002F0A3F80C21C4
:10286000200002F09FF80021200002F03FF904212F
:10287000200002F03BF90821200002F037F9FEE7C2
:102880005006002000001440000096450000404122
:10289000680500205C040020C004002019270008FF
:1028A0007005002082B00A4B196C01221143196493
:1028B000196C0A400092009ADA6B802149050A439C
:1028C000DA63DB6B0B400193019B02B07047C0469B
:1028D00000100240FEE7FEE77047704710B500F0B9
:1028E00001FA10BD10B58020800101F039F810BD4B
:1028F00010B5024800F0E8FE10BDC046C00400203C
:1029000010B5024801F070FD10BDC04670050020F2
:10291000024B802212059A607047C04600ED00E02D
:1029200000B583B002680C4B9A4201D003B000BDE1
:102930000A4A116C8020000101431164136C0340AA
:102940000193019B002201210D2000F069FD0D2063
:1029500000F096FDEAE7C046002C0140001002405E
:1029600010B588B004001422002103A802F0C8FEAC
:102970002268164B9A4201D008B010BD144B5A6B16
:10298000022422435A635A6B22400192019A596BE6
:102990000122114359635B6B1A400292029BE023B0
:1029A0001B0203930494079403A90A4800F0F2FE63
:1029B00086231B0203930494002305930693079434
:1029C000A02003A9C00500F0E5FED5E7002C0140DA
:1029D000001002400004005000B59DB010220021FC
:1029E00018A802F08DFE0C22002115A802F088FE26
:1029F0001C2200210EA802F083FE3422002101A82F
:102A000002F07EFE4648474B0360002343602022CD
:102A1000826096221201C260802252000261FF3A57
:102A20004261836101F0DEFD00285ED180235B01FD
:102A3000189318A93A4801F023FF002858D13848C4
:102A400001F000FE002856D1702315930023169341
:102A5000179315A9324802F0B5F800284ED160232B
:102A60000E9300230F9310931193129313931493C7
:102A700000220EA92A4801F055FE002841D1042267
:102A80000EA9274801F04EFE00283DD108220EA9CC
:102A9000234801F047FE002839D170230E93224BC2
:102AA0000F930C220EA91E4801F03CFE002831D1E4
:102AB00000230193029303930493059380229201D0
:102AC0000692079308930993802292040A920B932B
:102AD0000C930D9301A9124802F0ACF800281CD108
:102AE0000F48FFF73DFF1DB000BDFFF759FE9DE702
:102AF000FFF756FEA3E7FFF753FEA5E7FFF750FEEB
:102B0000ADE7FFF74DFEBAE7FFF74AFEBEE7FFF776
:102B100047FEC2E7FFF744FECAE7FFF741FEDFE7E3
:102B200070050020002C01405F09000010B5194815
:102B3000194B0360E1235B02436000238360C360A1
:102B400003610C2242618361C36103624362836259
:102B500002F0DAFA002811D100210E4802F054FBED
:102B600000280ED100210B4802F074FB00280BD185
:102B7000084802F029FB002809D110BDFFF710FE1C
:102B8000EAE7FFF70DFEEDE7FFF70AFEF0E7FFF7D4
:102B900007FEF2E7BC0500200038014010B58EB0FA
:102BA00004001422002109A802F0AAFD1C22002121
:102BB00002A802F0A5FD2268164B9A4201D00EB081
:102BC00010BD0123029302A801F020FA00281DD1B4
:102BD000114B196C8020C001014319641A6C02402A
:102BE0000092009A596B0222114359635B6B1340A8
:102BF0000193019BC02309930A9200230B930C932A
:102C00000D9309A9054800F0C5FDD8E7FFF7C8FDF9
:102C1000DEE7C046003801400010024000040050CA
:102C20000D488546002103E00C4B5B5843500431AE
:102C30000B480C4B42189A42F6D30B4A02E0002391
:102C400013600432094B9A42F9D3FFF761FE02F098
:102C500035FDFFF7D1FDFEE7003000206C6D000868
:102C6000000000203C0400204004002084060020D6
:102C7000FEE7000010B50400114B1968002901D1CE
:102C8000012010BDFA208000FDF73EFA01000D4B37
:102C90001868FDF739FA00F0FFFB00280DD1032C6E
:102CA00001D90120EDE7013000222100404200F06F
:102CB000B7FB054B1C600020E3E70120E1E7C046BD
:102CC00004000020000000200800002010B50320B0
:102CD000FFF7D0FF041E02D00124200010BDFFF733
:102CE000E1FDFAE7034A1368034909685B181360BA
:102CF0007047C0464C06002004000020014B1868B5
:102D00007047C0464C06002070B582B00400002316
:102D10000193002800D119E1836D002B12D02368A4
:102D20009A68D2001BD49A688949114080225205C2
:102D30000A439A60874B18688749FDF7E5F9400018
:102D4000019009E0FFF7AAFB0023E3655422A35496
:102D5000E5E7019B013B0193019B002BF9D123681F
:102D60009A68D20000D59DE0A26D10210A43A265A9
:102D7000E26D0F390A43E26501209A6804210D00D3
:102D80001540114200D00125A26DD20600D5D6E033
:102D9000002D00D0D3E0A26D70490A400631FF310A
:102DA0000A43A2659A68D20752D4227E9203A16890
:102DB0000A43617EC9030A43A67E71030A43216B5D
:102DC000002901D0802149010A43E1680A432169B1
:102DD000002969DB802189030A432C21615C4900B9
:102DE0000A432021615C012961D0616A002905D074
:102DF000E02676003140A66A31430A43D968584E2E
:102E000031400A43DA6063689B0F9B07E26C1A4308
:102E10003C21615C012959D021680B69514E334036
:102E200013430B616368C0221206934210D08022C4
:102E3000D20593420CD080221206934208D04A4910
:102E40000A684A4E3240F026B603334013430B6003
:102E50002268536907218B43616B0B4353612168DF
:102E60004B6970229343A26B120113434B61236998
:102E7000002B35D12268916A103B0B439362236883
:102E80005A6907231340626B9A424FD0A36D1222F6
:102E90009343023A1343A365E36D0F3A1343E3658B
:102EA000012051E0002068E74900490894E7002E1E
:102EB00003D1802149020A4397E7A16D20263143BF
:102EC000A165E16D1F3E3143E1658EE7216C0B4347
:102ED000616C0B43A16C0B43134301221A439BE724
:102EE000802292039342CAD1072D08D8AB00226EEC
:102EF000DA400F2313400F2B01D00135F4E7012DE9
:102F00000DD021688B6AE369013B9B001C221A40AB
:102F100010235B429340226E13438B62AFE722681B
:102F2000916A10235B420B439362A8E70023E36599
:102F3000A36D03229343023A1343A36504E0A36DF8
:102F400010221343A365012002B070BD0120FBE7EE
:102F5000E8FFFF6F00000020400D0300FDFEFFFFB3
:102F60000102FEFF02FCFF1F08270140FFFFC3FF15
:102F70007047704710B5806AFFF7FBFF10BD7047C0
:102F800010B5806A836D402213438365C36D3C3A5C
:102F90001343C365FFF7F3FF10BD000010B5030036
:102FA000806A826D502111422AD1826D80239B005C
:102FB000134383650368D968C0221201114213D1FB
:102FC000827E002A10D11A6812070DD59A6852071E
:102FD0000DD45A680C218A435A60836D0E4A1340FF
:102FE0000432FF3213438365FFF7C2FF10BD836DC8
:102FF000202213438365C36D1F3A1343C365F3E770
:10300000826DD20604D4026D526B18009047EDE732
:10301000FFF7B5FFEAE7C046FEFEFFFFF0B583B05D
:1030200004000023019305695433C35C012B00D1D4
:1030300022E154230122C25400688368033216003F
:103040001E401A4209D0A36D1C321343A365012010
:1030500054230022E25403B0F0BD4B68022B00D190
:10306000D6E080221206954226D0844A954223D08B
:103070001F221340103A9A40256E95432A000D688E
:103080006F022FD1AD0E1F262E409E40164326669E
:103090004D68AB080133E269934213D8826A1F235B
:1030A0001D40103B1E00AE40B2430E68B60E3340CA
:1030B000AB401343836205E0826A0B685B025B0AE4
:1030C00013438362206842690B681B029A438D6830
:1030D0002B406B4D2B40134343610B68002B5FDB90
:1030E0000020B5E7EF07D0D4AE072FD46E072FD45A
:1030F0002E072FD4EE062FD4AE062FD46E062FD473
:103100002E062FD4EE052FD4AE052FD46E052FD466
:103110002E052FD4EE042FD4AE042FD46E042FD45A
:103120002E042FD4EE032FD4AE032FD46E032FD44E
:103130002E032FD4EE022FD4AE022FD48027FF030C
:103140002E003E403D42A0D016269EE701269CE779
:1031500002269AE7032698E7042696E7052694E7D1
:10316000062692E7072690E708268EE709268CE7D1
:103170000A268AE70B2688E70C2686E70D2684E7D1
:103180000E2682E70F2680E710267EE711267CE7D1
:1031900012267AE7132678E7142676E7152674E7D1
:1031A000384A1168C02212040A403748834204D0CA
:1031B000364883421FD000204AE70802F8D4802313
:1031C0001B041A432F490B68314803401A430A6015
:1031D000304B18683049FCF797FF43001B189B00E1
:1031E0000133019302E0019B013B0193019B002B02
:1031F000F9D100202CE74B023CD48023DB031A4397
:1032000020490B68224803401A430A6000201FE748
:1032100080231B069D4202D0184B9D4205D1826A35
:103220000B685B025B0A9A4382620B68002B01DB2E
:1032300000200DE7134A126813498B4204D013494A
:103240008B420CD0002003E78023DB031A400D499A
:103250000B680F4803401A430A600020F8E68023F9
:103260001B041A4007490B68094803401A430A60C7
:103270000020EDE60020EBE60220ECE604000080F2
:1032800000FFFF7F08270140000200A4000400A8FF
:10329000FFFF3FFF00000020400D030030B583B06A
:1032A00004000023019303689A68D2074DD49968FB
:1032B000274A114211D19A6826490A4001210A433E
:1032C0009A60254B1B681B0217D5244B18682449AC
:1032D000FCF71AFF013001900CE0836D10221343BC
:1032E0008365C36D0F3A1343C36501202EE0019B34
:1032F000013B0193019B002BF9D1637E012B01D18E
:10330000002023E0FFF7FAFC050004E0FFF7F6FCDD
:10331000401B02280DD823681A68D20713D49A6874
:10332000D207F3D49A680B490A4001210A439A60F4
:10333000ECE7A36D10221343A365E36D0F3A13432B
:10334000E365012002E0002000E0002003B030BD72
:1033500017000080E8FFFF7F0827014000000020E1
:10336000400D030070B504000D00160003689A6854
:10337000520747D45422825C012A45D001225421AD
:103380004254D9680A420DD19A68D20705D59A6885
:103390001E490A4002210A439A602268D36801212B
:1033A0000B43D3602000FFF779FF00282BD1A36DDA
:1033B000174A1A4080235B001343A3650023E3658B
:1033C000226D1449D162226D13491163226D134994
:1033D000516322681C2111605422A354226853684F
:1033E0000C390B4353602168403133002A00206DB3
:1033F00000F01AF92268936804490B4004210B433A
:10340000936000E0022070BD0220FCE7E8FFFF7F30
:10341000FEF0FFFF9D2F0008752F0008812F000888
:1034200070B5002811DB8308134EC0339B009D59F3
:1034300003242040C000FF2214008440A5438901DA
:103440000A4082402A439A5170BD0F230340083B33
:103450009B0806339B00094A944663445C68032238
:103460001040C000FC3215008540AC4389010A4081
:10347000824022435A60E7E700E100E000ED00E00F
:10348000002805DB1F2318401E3B8340014A1360C0
:103490007047C04600E100E0013880235B04984299
:1034A0000FD2094A50600948036A1B021B0AC02157
:1034B00009060B4303620023936007331360002067
:1034C00070470120FCE7C04610E000E000ED00E09E
:1034D000F0B5846CC56C6560046D002C02D0446D41
:1034E000856D65600B4F7C681C26056C2E400125A0
:1034F000B5402C437C60046863608368102B04D063
:10350000036899600368DA60F0BD03689A60036835
:10351000D960F9E70000024010B50400FF202368DD
:10352000184008381421FCF7EFFD236C9B08064A6D
:10353000944663449B006364044BA3641C231840BB
:103540001B3B8340E36410BD0082001080080240F2
:10355000FF2342681340064A9A1892000265054A02
:103560004265013B03221A40012393408365704763
:103570003F8200104009024070B5041E4DD005681E
:10358000274BE8181421FCF7BFFD80002064252399
:103590000222E2542B68234A13402B6021680A68F8
:1035A000A368E06803432069034360690343A0699B
:1035B0000343E0690343206A034313430B60200085
:1035C000FFF7AAFF8023DB01A2689A4218D0626C41
:1035D000FF2361680B401360A36CE26C5A60636860
:1035E000013B032B0FD9002323656365A3650023EB
:1035F000E36325220121A154013AA354002070BDA8
:1036000000236360E3E72000FFF7A2FF236D0022A1
:103610001A60636DA26D5A60E9E70120EFE7C046CA
:10362000F8FFFDBF0F80FFFF70B504002420205C71
:10363000012846D02420012525540130205C012892
:1036400007D024230022E254022024230022E25443
:1036500070BD2430013525540020E06325682868BA
:103660000126B04328602000FFF732FF236B002BB8
:103670001CD0226813680E210B431360636C1A6818
:10368000D20304D51968802252000A431A60236DC0
:10369000002B04D01968802252000A431A60226865
:1036A000136801210B4313600020CEE722681368E2
:1036B00004218B4313602268136806310B431360A7
:1036C000DCE70220C4E7000070B5314B19680468DC
:1036D00025681C23026C134004229A40114216D024
:1036E0006A0714D523689B0603D4236804229343F6
:1036F0002360274C63681C21026C114004228A401D
:1037000013436360036B002B00D0984770BD022207
:103710009A4011421CD0AA071AD523689B0606D4EA
:1037200023680A22934323602523093AC254184C84
:1037300063681C21026C114002228A4013436360BB
:1037400024230022C254C36A002BDFD09847DDE750
:1037500008229A401142D9D02B07D7D523680E22D0
:10376000934323600A4C62681C21036C19400123B7
:103770001D008D402A436260C36325228354233396
:103780000022C254436B002BC0D09847BEE7C0460E
:1037900000000240F0B5D6464F464646C0B500236D
:1037A0003BE0042500E00025A5402C003C43634D90
:1037B0001832920054518022AC584A46D243250018
:1037C0004E46B5434E68F60302D54D462C432500C0
:1037D0005A4C8027E55184256459250015404E68D0
:1037E000B60302D54D462C432500544C8427E551A1
:1037F0002468250015404E68F60202D54D462C433C
:1038000025004E4C2560646822404D68AD0201D50C
:103810004A462243494C626001330C682200DA4078
:1038200000D186E001229A4026001640B14614429B
:10383000F2D04C68022C01D0122C18D1DD080835CA
:10384000AD002C58A44607271F40BF000F24A246F6
:103850002600BE40B04666464446A643B4460C69C0
:10386000564626403400BC40664634432C5004681B
:10387000A4465D000324A2462700AF40B846FF439C
:1038800066464446A643B4464C6856462640340035
:10389000AC406646344304604C68661E012E03D972
:1038A000112C01D0122C12D184683C40A446CC6863
:1038B000AC40664634438460446894434A681209C5
:1038C00094460122664632409A40224342604A684A
:1038D000032A05D0C2683A408F68AF401743C760DB
:1038E0004A68D20098D59A0814001834A400134DE1
:1038F000675903251D40EC000F25A540AF43A025C7
:10390000ED05A84200D14EE70D4DA8420BD00D4D5C
:10391000A8420AD00C4DA84209D00C4DA84200D1B3
:103920003FE7052540E701253EE702253CE7032563
:103930003AE7E0BCBA46B146A846F0BD00180240DE
:103940000004005000080050000C0050001400500B
:10395000002A01D0816170478162FCE7704770479F
:1039600010B50400094BDB68184204D1074B1B69F2
:10397000234205D110BD054BD860FFF7EFFFF5E7F7
:10398000024B1C612000FFF7EAFFF3E7001802403A
:1039900010B5041E59D04123C35C002B43D04123F2
:1039A0002422E2542268136801218B4313602268A9
:1039B000274B61680B4013612268936825490B40CF
:1039C0009360E368012B34D0226884231B02A16832
:1039D0000B439360E368022B32D0226851681E4B80
:1039E0000B4353602268D3681A490B40D3602369A4
:1039F00062691343A269120221681343CB602268F3
:103A0000E369216A0B4313602268136801210B43A9
:103A100013600023636441221F31A15423630132E8
:103A2000A354002010BD40330022C254FEF730FEE4
:103A3000B5E7226880231B02A1680B439360C9E7A6
:103A40002368802212015A60C7E70120EAE7C046D6
:103A5000FFFFFFF0FF7FFFFF00800002F0B5412372
:103A6000C35C202B20D12033C35C012B1ED040240B
:103A700001220255412524234355066833689343A8
:103A80003360066833680A4F3B403360066833682A
:103A90001943316001680B6813430B6020234355C1
:103AA000002303550020F0BD0220FCE70220FAE7C6
:103AB000FFEFFFFFF0B54123C35C202B1ED1203365
:103AC000C35C012B1CD04024012202554125242334
:103AD0004355066833689343336006683368094F7B
:103AE0003B4009021943316001680B6813430B60C6
:103AF00020234355002303550020F0BD0220FCE79E
:103B00000220FAE7FFF0FFFF70B5041E00D149E183
:103B10000368DB0730D5AB4B9A6838231340082B7A
:103B200022D0436880225202934272D0A022D20255
:103B3000934275D0A34B1A68A3490A401A601A68C9
:103B4000A2490A401A606368002B75D0FFF7D6F8C7
:103B500005009C4B1B689B030ED4FFF7CFF8401B5E
:103B60006428F6D9032028E1964B1B689B0303D5F4
:103B70004368002B00D117E123689B0729D5914B9F
:103B80009B6838221A4265D18E4B1B685B0503D5B2
:103B9000E368002B00D109E18A4B5A688C490A403E
:103BA000616909020A435A601A688A490A40216910
:103BB0000A431A601B68DB0A07221A40864BD3406F
:103BC000864A1360864B1868FFF754F8002800D027
:103BD000EEE023681B077DD57A4B9A6838231340A3
:103BE000182B70D0A369002B00D19CE0754A136E8E
:103BF00001210B431366FFF781F80500714B1B6E23
:103C00009B0767D4FFF77AF8401B0228F6D90320F8
:103C1000D3E06C4A116880235B020B43136092E788
:103C2000684B19688022D2020A431A601968802200
:103C300052020A431A6086E7FFF760F80500614BFD
:103C40001B689B0398D5FFF759F8401B6428F6D9E9
:103C50000320B2E0E368002B22D05A4A13685D4982
:103C60000B4021690B431360116880235B000B43F9
:103C70001360FFF743F80500524B1B685B0506D441
:103C8000FFF73CF8401B0228F6D9032095E04D4988
:103C90004B684F4A13406269120213434B6098E726
:103CA000484A13684F490B401360FFF727F8050097
:103CB000444B1B685B058CD5FFF720F8401B02289E
:103CC000F6D9032079E03F4B1B6E9B0702D5A36911
:103CD000002B6FD023685B076ED53A4B9A68382368
:103CE0001340202B32D0A368012B38D0052B3CD0B9
:103CF000344BDA6D01218A43DA65DA6D03318A4388
:103D0000DA65A368002B3CD0FEF7F8FF04002D4BCA
:103D1000DB6D9B0733D4FEF7F1FF001B324B98425B
:103D2000F5D9032049E0274A136E01218B4313661E
:103D3000FEF7E4FF0500234B1B6E9B07CAD5FEF779
:103D4000DDFF401B0228F6D9032036E01D4BDB6D5A
:103D50009B0733D5A368002B32D000202DE0194AF1
:103D6000D36D01210B43D365CBE7164BDA6D0421EC
:103D70000A43DA65DA6D03390A43DA65C1E70020E0
:103D80001BE0FEF7BBFF04000E4BDB6D9B0707D566
:103D9000FEF7B4FF001B144B9842F5D903200CE04A
:103DA00000200AE0012008E0012006E0012004E0F4
:103DB000012002E0012000E0002070BD0020FCE7AF
:103DC0000120FAE700100240FFFFFEFFFFFFFBFFAC
:103DD000FF80FFFFFFC7FFFF006CDC020000002038
:103DE00008000020FFFEFFFF88130000144B9B68B3
:103DF00038221A4207D1124B1A68D20A07231340FD
:103E00001048D84070470E4B9A6838231340082B4F
:103E100010D00B4B9A6838231340202B0CD0084B42
:103E20009A6838231340182B01D00020EAE7FA20C3
:103E3000C001E7E70348E5E780200002E2E7C0466B
:103E400000100240006CDC0270B504000D00002878
:103E500000D1AAE0574B1A68072313408B4228D39E
:103E600023689A0710D55B0707D553498B68534AD7
:103E70001A40B0231B0113438B604F4A936850498B
:103E80000B40E1680B4393602368DB0752D54A4A35
:103E900013681C218B43A1680B4313606368012BDB
:103EA0001ED0002B38D1444A126852051BD4012081
:103EB00063E0404A136807218B432B431360FEF7EE
:103EC0001DFF06003B4B1A6807231340AB42C7D0C7
:103ED000FEF714FF801B3B4A9042F3D903204CE0CD
:103EE0001268920363D534498A68072082431343DA
:103EF0008B60FEF703FF06002F4B9B6838221A40A9
:103F00006368DB009A4215D0FEF7F8FE801B2D4B4C
:103F10009842F1D9032030E0032B05D0264AD26D18
:103F20009207E0D4012028E0234A126E9207DAD4E7
:103F3000012022E01F4B1A6807231340AB421DD813
:103F400023685B0706D51C4A93681F490B4021690B
:103F50000B439360FFF74AFF174B9A68120A0F232F
:103F600013409B00194A9A581F231340D840184BFE
:103F70001860184B1868FEF77DFE70BD0D4A136877
:103F800007218B432B431360FEF7B8FE0600094B55
:103F90001A6807231340AB42D2D0FEF7AFFE801B56
:103FA000084B9842F3D90320E7E70120E5E7012019
:103FB000E3E7C0460020024000100240FF84FFFFFC
:103FC000FFF0FFFF88130000FF8FFFFF7C680008F1
:103FD0000000002008000020014B18687047C04610
:103FE0000000002010B5FFF7F7FF064B9A68120B90
:103FF000072313409B00044A9A581F231340D840BC
:1040000010BDC04600100240BC68000870B582B008
:10401000040003689B034ED5424BDB6BDB0035D4B9
:10402000404AD16B802040050143D163D36B0340EC
:104030000193019B01253B4BD96DC02292000B00DF
:104040001340114210D0A2699A420DD0354AD36D67
:1040500035490B40D06D802149020143D165D16DB6
:1040600032480140D165D365DB0711D42D4AD36DA9
:104070002D490B40A1690B43D3650020012D1BD1B5
:10408000284AD36B2A490B40D36315E00025D2E7B9
:10409000FEF734FE0600234BDB6D9B0707D4FEF7CB
:1040A0002DFE801B234B9842F5D9032000E0002011
:1040B0000028E3D1DAE700202368DB0706D5194A98
:1040C000536D03218B43A1680B43536523685B0643
:1040D00006D5144A536D18490B40E1680B435365EC
:1040E00023685B0406D50F4A536D9B009B086169EA
:1040F0000B43536523681B0506D50A4A536D0F49C8
:104100000B4021690B4353652368002B01DB02B090
:1041100070BD044A1368E0218B4361680B43136050
:10412000F5E7C04600100240FFFCFFFFFFFFFEFF67
:10413000FFFFFFEF88130000FFCFFFFFFF3FFFFFF0
:1041400030B5036A012293430362036A42688469BB
:10415000154D2C400D682C430225AB438D682B4335
:10416000124DA84205D0124DA84202D0114DA842CE
:1041700005D10825AB43CD682B430425AB430B4D3C
:10418000A84205D00A4DA84202D00A4DA84205D146
:10419000094D2A404D692A438D692A434260846152
:1041A0004A684263036230BD8CFFFEFF002C014071
:1041B0000044014000480140FFFCFFFF70B5036A66
:1041C000184A13400362036A4468C269164D2A40C4
:1041D0000E681643154A13408A6812021343144AA4
:1041E000904216D0124A904205D0124A904202D014
:1041F000114A904207D1114A22404C6924011443CC
:104200008A6915012C434460C6614A68C26303622F
:1042100070BD0B4A1A40CB681B021343094A134076
:10422000E0E7C046FFFEFFFF8CFFFEFFFFFDFFFF44
:10423000002C01400044014000480140FFCFFFFF37
:10424000FFF7FFFFFFFBFFFF30B5036A114A134082
:104250000362036A4568C2690F4C22400C6824025D
:1042600022430E4C1C408B681B0323430C4CA04282
:1042700005D00C4CA04202D00B4CA04204D10B4CF8
:1042800025404C69A40125434560C2614A68026427
:10429000036230BDFFEFFFFFFF8CFFFEFFDFFFFF7C
:1042A000002C01400044014000480140FFBFFFFFD7
:1042B00030B5036A114A13400362036A4268446DD1
:1042C0000F4D2C400D682C430E4D1D408B681B0478
:1042D0002B430D4DA84205D00C4DA84202D00C4DE9
:1042E000A84204D1054D2A404D692D022A4342605F
:1042F00044654A688265036230BDC046FFFFFEFF29
:104300008FFFFEFFFFFFFDFF002C01400044014036
:104310000048014030B5036A114A13400362036A42
:104320004568426D0F4C22400C68240222430E4C1B
:104330001C408B681B0523430C4CA04205D00C4C41
:10434000A04202D00B4CA04204D10B4C25404C693A
:10435000A4022543456042654A68C265036230BDD8
:10436000FFFFEFFFFF8FFFFEFFFFDFFF002C01408D
:104370000044014000480140FFFFFBFF30B5036AE5
:10438000046A0125AC4304628469EF35AC43120131
:1043900022430A24A3430B438261036230BD000021
:1043A00030B5036A1024A34303628469036A054D90
:1043B0002C4012032243A024A34309011943826124
:1043C000016230BDFF0FFFFF8368034A13400B43B8
:1043D00007210B43836070478FFFCFFF7047704703
:1043E000704770477047704710B5040003681A693A
:1043F00092070FD5DA6892070CD5032252421A6150
:104400000123037703689B699B076AD0FFF7E9FFE5
:104410000023237723681A69520712D5DA685207F6
:104420000FD5052252421A610223237723689A6925
:10443000C0239B001A425AD02000FFF7D2FF00236E
:10444000237723681A69120710D5DA6812070DD589
:10445000092252421A61042323772368DB699B07F0
:104460004CD02000FFF7BDFF0023237723681A6993
:10447000D20612D5DA68D2060FD5112252421A613D
:10448000082323772368DA69C0239B001A423CD0B3
:104490002000FFF7A6FF0023237723681A69D207BD
:1044A00002D5DA68D20737D423681A69120602D512
:1044B000DA68120637D423681A69D20502D5DA6899
:1044C000120637D423681A69520602D5DA685206F2
:1044D00036D423681A69920602D5DA68920636D471
:1044E00010BDFFF77DFF2000FFF77CFF90E7200065
:1044F000FFF776FF2000FFF775FFA0E72000FFF72A
:104500006FFF2000FFF76EFFAEE72000FFF768FFA8
:104510002000FFF767FFBEE7022252421A61200027
:10452000FFF75DFFC0E7812252421A61200000F0D0
:10453000E8FBC0E7094A1A61200000F0E3FBC1E78D
:10454000412252421A612000FFF74DFFC1E72122AC
:1045500052421A61200000F0D3FBC1E7FFFEFFFFCB
:1045600003681A4A904202D0194A904203D170223D
:1045700093434A681343154A90420BD0144A904221
:1045800008D0144A904205D0134A904202D0134AF0
:10459000904203D1124A1340CA68134380229343C6
:1045A0004A69134303608B68C3620B688362074BDD
:1045B000984205D0084B984202D0084B984201D14E
:1045C0000B690363012343617047C046002C01401F
:1045D0000004004000200040004401400048014029
:1045E000FFFCFFFF70B5041E2AD03D23C35C002BE7
:1045F00020D03D2502236355210001C9FFF7B0FFFC
:1046000001234822A3540A3AA3540132A35401328D
:10461000A3540132A3540132A3540132A3540132F2
:10462000A3540132A3540132A3540132A35463555D
:10463000002070BD3C330022C254FEF771F9D8E768
:104640000120F6E770B5041E2AD03D23C35C002B81
:1046500020D03D2502236355210001C9FFF780FFCB
:1046600001234822A3540A3AA3540132A35401322D
:10467000A3540132A3540132A3540132A354013292
:10468000A3540132A3540132A3540132A3546355FD
:10469000002070BD3C330022C254FFF79FFED8E7D4
:1046A0000120F6E730B5036A102293430362036AE0
:1046B00045688469164A14400A681202144320228D
:1046C00093438A6812011343124A904216D0114A4A
:1046D000904205D0104A904202D0104A904207D131
:1046E0000F4A2A404D69AD0015438A69920015436F
:1046F000456084614A688263036230BD80229343CF
:104700001A00CB681B01134340229343DFE7C046E6
:10471000FF8CFFFE002C0140004401400048014096
:10472000FFF3FFFF70B504000D003C23C35C012BB9
:1047300000D192E03C230121C154142A00D987E022
:104740009200474B9B589F4629000068FFF7F8FCF2
:104750002268936908210B439361226893690439A5
:104760008B4393612268936929690B43936100200D
:104770006FE029000068FFF795FF226891698023A8
:104780001B010B4393612268936936490B40936187
:1047900021688B692A69120213438B61002058E05B
:1047A00029000068FFF70AFD2268D36908210B433E
:1047B000D3612268D36904398B43D3612268D369FA
:1047C00029690B43D361002043E029000068FFF70B
:1047D0003BFD2268D16980231B010B43D361226812
:1047E000D36920490B40D3612168CB692A69120241
:1047F0001343CB6100202CE029000068FFF758FD2F
:104800002268536D08210B4353652268536D0439A8
:104810008B4353652268536D29690B435365002010
:1048200017E029000068FFF775FD2268516D8023AD
:104830001B010B4353652268536D0A490B405365B6
:1048400021684B6D2A69120213434B65002000E07A
:1048500001203C230022E25470BD0220FCE7C04648
:10486000DC680008FFFBFFFF30B58468034D2C4077
:104870001B0213430B432343836030BDFF00FFFF44
:1048800010B504003C23C35C012B00D178E03C232D
:104890000122C25401330132C2540268936839487C
:1048A000034093600B68602B50D02AD8402B58D01F
:1048B0000CD9502B23D1CA6849682068FFF75EFDE8
:1048C00050212068FFF780FD002005E0202B0ED04E
:1048D00009D9302B0BD001203D230122E254013BAA
:1048E0000022E25410BD002B01D0102B05D119007D
:1048F0002068FFF769FD0020EEE70120ECE70120CA
:10490000EAE780225201934236D0802292019342FC
:104910000DD1CB684A6889682068FFF7A5FF226837
:1049200091688023DB010B4393600020D4E7702B58
:1049300024D1CB684A6889682068FFF795FF226810
:10494000936877210B4393600020C5E7CA684968E4
:104950002068FFF725FD60212068FFF735FD002066
:10496000BAE7CA6849682068FFF708FD4021206857
:10497000FFF72AFD0020AFE70020ADE70120ABE7FD
:104980000220AFE78800CEFF10B51F231940012495
:104990008C40036AA3430362036A8A4013430362A1
:1049A00010BD000010B5040000292CD13E23C35CCB
:1049B000013B5A1E9341DBB2002B79D100294DD126
:1049C0003E330222E25401222068FFF7DDFF236814
:1049D0003A4A934205D03A4A934202D0394A934226
:1049E00004D1596C802212020A435A642368334A64
:1049F00093424FD0344A93424CD01A6801210A4363
:104A00001A60002055E004290CD0082911D00C2987
:104A100016D010291BD04323C35C013B5A1E93417F
:104A2000DBB2C9E73F23C35C013B5A1E9341DBB2B3
:104A3000C2E74023C35C013B5A1E9341DBB2BBE794
:104A40004123C35C013B5A1E9341DBB2B4E74223CE
:104A5000C35C013B5A1E9341DBB2ADE7042909D088
:104A600008290BD00C290DD010290FD04323022286
:104A7000E254A8E73F230222E254A4E740230222A3
:104A8000E254A0E741230222E2549CE7422302229F
:104A9000E25498E79A680D490A40062A0AD0073975
:104AA0008A4209D01A6801210A431A60002000E0F6
:104AB000012010BD0020FCE70020FAE7002C014097
:104AC000004401400048014000040040070001008C
:104AD00010B51F23194004248C40036AA3430362CA
:104AE000036A8A401343036210BD000010B504003E
:104AF000002923D14423C35C013B5A1E9341DBB2FE
:104B0000002B52D1002932D144330222E254042234
:104B10002068FFF7DDFF2268516C80231B020B43E6
:104B200053642368244A934231D0244A93422ED0BE
:104B30001A6801210A431A60002037E0042908D0CE
:104B400008290DD04723C35C013B5A1E9341DBB2B9
:104B5000D6E74523C35C013B5A1E9341DBB2CFE746
:104B60004623C35C013B5A1E9341DBB2C8E70429CC
:104B700005D0082907D047230222E254C7E745237E
:104B80000222E254C3E746230222E254BFE79A68B6
:104B90000B490A40062A0AD007398A4209D01A6806
:104BA00001210A431A60002000E0012010BD00200E
:104BB000FCE70020FAE7C046002C0140000400405A
:104BC0000700010030B53C23C35C012B29D03C23F6
:104BD0000122C25401330132C254026853689468FE
:104BE000114DAA4218D07025AB430D682B4353607A
:104BF00003680D4A934202D00C4A934204D18022AA
:104C000094438A6814439C603D230122C254013BB3
:104C10000022C254002030BD054D2B404D682B436F
:104C2000E1E70220F7E7C046002C01400004004005
:104C3000FFFF0FFF10B53C23C35C012B44D03C2386
:104C40000122C254214BCA6813408A681343204A88
:104C500013404A6813431F4A13400A6813431E4A0D
:104C600013400A6913431D4A13404A6913431C4AFF
:104C700013400A6B13431B4A13408A6912041343FF
:104C80000268194CA24208D0174CA2420AD05364C1
:104C90003C230022C254002010BD144C2340CC6998
:104CA0002343F1E7124C23408C6A24052343114C23
:104CB00023400C6A2343104C23404C6A23430F4C7F
:104CC0002340C96A0B43E2E70220E5E7FFFCFFFF50
:104CD000FFFBFFFFFFF7FFFFFFEFFFFFFFDFFFFF20
:104CE000FFBFFFFFFFFFF0FF002C0140FFFFFFEFC2
:104CF000FFFF0FFFFFFFFFFEFFFFFFFDFFFFFFDFD7
:104D0000704770477047000010B50400836802695F
:104D1000134342691343C269134301680A68634835
:104D2000024013430B602268536861490B40E168FD
:104D30000B435360226AA3691A4321688B685D485C
:104D4000034013438B602268D36A0F218B43616A4F
:104D50000B43D3622368584A93421BD0574A93426D
:104D600029D01023E0698022120290422DD0042B1A
:104D700000D194E068D8002B00D18AE0022B61D1E9
:104D80004F4B1B685B090721194001314D48FBF768
:104D9000BBF980E04A4B5A6D03231340022B0CD021
:104DA00005D8002B0BD0012B0BD10333DAE7032BF3
:104DB00009D10533D6E70023D4E70223D2E7002345
:104DC000D0E71023CEE71023CCE7042B37D00FD841
:104DD000002B2ED0022B09D1394B1B685B09072110
:104DE000194001313748FBF78FF924E0012047E0F3
:104DF000082B1CD1636A5B00334A995AFBF784F98C
:104E0000400063685B08C0186168FBF77DF9020029
:104E1000103A2E4B9A4245D882B20F239A4340084B
:104E2000083B184010432368D860002028E0012088
:104E300026E0FFF7D7F80028DCD1002020E0FEF7BD
:104E4000D5FFF8E701201BE0082B18D180200002D5
:104E5000636A5B001C4A995AFBF756F963685B0862
:104E6000C0186168FBF750F90200103A174B9A42DC
:104E70001AD823680004000CD860002000E001204C
:104E800001236A22A352023AA352002323676367D5
:104E900010BDFFF7A7F80028DAD10020F0E7FEF7F1
:104EA000A5FFF8E70120EBE70120E9E7F369FFCF71
:104EB000FFCFFFFFFFF4FF11003801400044004026
:104EC00000100240006CDC0230690008EFFF0000B7
:104ED000836ADB0706D5026853682C490B40C16A18
:104EE0000B435360836A9B0706D5026853682849C1
:104EF0000B40016B0B435360836A5B0706D5026866
:104F0000536824490B40416B0B435360836A1B0772
:104F100006D50268536820490B40816B0B435360F0
:104F2000836ADB0606D5026893681C490B40C16B97
:104F30000B439360836A9B0606D502689368184901
:104F40000B40016C0B439360836A5B060BD50268D0
:104F5000536814490B40416C0B43536080235B033F
:104F6000426C9A420AD0836A1B0606D502685368CF
:104F70000D490B40C16C0B43536070470268536886
:104F80000A490B40816C0B435360ECE7FFFFFDFFC8
:104F9000FFFFFEFFFFFFFBFFFF7FFFFFFFEFFFFFB6
:104FA000FFDFFFFFFFFFEFFFFFFFF7FFFFFF9FFFA9
:104FB000F8B5CE46474680B506000D001700994665
:104FC000089B98463368DC692C40641B63425C4153
:104FD000BC4257D143460133F4D0FDF78FFE4B4618
:104FE000C01A40452ED84346002B2BD033681A6890
:104FF0005207E7D5DA691205E4D5802212011A6258
:10500000EFF31080012282F3108831680B68204C86
:1050100023400B6080F31088EFF3108082F3108838
:1050200031688B6893438B6080F310882023833230
:10503000B3500432B3500432B35060330022F25400
:10504000032020E0EFF31080012282F31088316802
:105050000B680F4C23400B6080F31088EFF3108037
:1050600082F3108831688B6893438B6080F31088DB
:1050700020238332B3500432B35060330022F25401
:10508000032000E00020C0BCB946B046F8BDC046D1
:105090005FFEFFFF30B583B004008C230022C250B6
:1050A000FDF72CFE05002268126813070FD4236851
:1050B0001B685B0718D420238422A3500432A3501A
:1050C0000023E366083AA354002003B030BD8021DA
:1050D0000C4B00930300002289032000FFF768FFB8
:1050E0000028E4D00320F0E78021064B00932B003A
:1050F0000022C9032000FFF75BFF0028DBD003205C
:10510000E3E7C046FFFFFF0110B5041E30D0842343
:10511000C358002B22D084232422E2502268136833
:1051200001218B4313602000FFF7EEFD012814D00E
:10513000A36A002B18D1226853680E490B405360B4
:10514000226893682A218B43936022681368293967
:105150000B4313602000FFF79DFF10BD803300223A
:10516000C254FDF71BFDD6E72000FFF7B1FEE2E7D2
:105170000120F2E7FFB7FFFFF8B50400436E002BF4
:1051800005D101336A228352023A8352F8BD026884
:1051900095686D0E07231D409268520F1340084F0B
:1051A000F85CC000074EF15CFBF738F86A23E05268
:1051B000785DC000715DFBF731F86823E052E5E7E8
:1051C000506900084869000870B58023C35C012B52
:1051D00015D08024012606558425242343510268D6
:1051E00013681168B1431160064A134000224266F9
:1051F00001680B60202343510255002070BD02203E
:10520000FCE7C046FFFFFFDFF8B504000A0080237B
:10521000C35C012B1BD080250120605584262423EC
:10522000A35123681F681968814319602068836847
:10523000DB00D908114381602000FFF79DFF236840
:105240001F602023A351002363550020F8BD0220D6
:10525000FCE70000F8B504000B008022825C012A04
:105260001BD080250120605584262422A25122686B
:1052700017681168814311602268916808480140ED
:10528000194391602000FFF777FF23681F602023F8
:10529000A351002363550020F8BD0220FCE7C0465F
:1052A000FFFFFFF1F8B5CE46474680B5E54F3C69B4
:1052B000201C00F037FB8046201C00F0F7FA051C8C
:1052C00038687968FCF7F0FF061C291CFBF788FC9E
:1052D0008146B868F968FCF7E7FF041C4146FBF714
:1052E0007FFC011C4846FBF7A1FD071C4146301C12
:1052F000FBF776FC061C291C201CFBF771FC011C2B
:10530000301CFBF707F9061C0021FBF7D7F8002833
:1053100029D00125CC49381CFBF762FC311CFBF776
:1053200085FDFC218905FBF75BFC0021FBF7C6F836
:10533000002800D00235C549381CFBF751FC311C50
:10534000FBF774FDFC218905FBF74AFC0021FBF704
:10535000B5F8002800D00435052D00D910E1AB00C8
:10536000BB4AD3589F460025D4E7BA49381CFBF7FF
:1053700037FC041CB849301CFBF732FC8046011C8A
:10538000201CFBF7C7F8041CAE4B98695969FBF762
:105390005FFA061C011C201CFBF722FC041CFF21E9
:1053A0008905381CFBF71CFC011C4046FBF7B2F8D2
:1053B000011C301CFBF714FC061C311C201CFBF7E5
:1053C000A9F8071C9F4B9B699846011C181CFBF70A
:1053D00061F800280DD0391C201CFBF739FA041C99
:1053E000011C301CFBF796F8011C301CFBF730FA4F
:1053F000061C311C201CFBF78DF8011C4046FBF7F6
:1054000015FDFA218905FBF7EBFB071CFC2189053B
:10541000201CFBF7E5FB391CFBF77CF8041C062D70
:1054200000D9E8E0AB008D4AD3589F46FF2189059B
:10543000381CFBF7D5FB041C8749301CFBF7D0FB5D
:10544000011C201CFBF766F8041C7E4B9A699046F1
:105450005F69391C101CFBF7FBF9011C201CFBF7D2
:10546000BFFB041C7849301CFBF7BAFB011C40460B
:10547000FBF7B6FB391CFBF7EBF980231B06C618BC
:105480009BE77449381CFBF7ABFB041C7249301CCA
:10549000FBF7A6FB011C201CFBF73CF8041C694B26
:1054A0009A6990465F69391C101CFBF7D1F9011C01
:1054B000201CFBF795FB80231B06C4186249301C97
:1054C000FBF78EFB011C4046FBF78AFB391CFBF700
:1054D000BFF9061C71E75C49301CFBF781FB594C96
:1054E000A3699846191CFBF77BFB63699946191C55
:1054F000FBF7AEF980231B06C4185649381CFBF78E
:105500006FFB071C5449301CFBF76AFB011C381C5D
:10551000FBF700F8061C49464046FBF799F9011CC9
:10552000301CFBF75DFB061C47E74749301CFBF7C7
:1055300057FB444CA3699846191CFBF751FB636960
:105540009946191CFBF784F9041CFF218905381CB6
:10555000FBF746FB071C4049301CFBF741FB011CD5
:10556000381CFAF7D7FF061C49464046FBF770F98E
:10557000011C301CFBF734FB80231B06C6181CE7FC
:10558000FF218905381CFBF72BFB041C3249301C1A
:10559000FBF726FB8046011C201CFAF7BBFF041C0E
:1055A000284B98695969FBF753F9061C011C201C0C
:1055B000FBF716FB80231B06C4182649381CFBF793
:1055C0000FFB011C4046FAF7A5FF011C301CFBF73E
:1055D00007FB80231B06C618EFE6214B9846186090
:1055E0005F60FC218905301CFBF7FAFA211CFAF7F1
:1055F00091FF434698602800FBF7E6FD184BD86002
:10560000C0BCB946B046F8BD154B98461F60FC219A
:105610008905301CFBF7E4FA211CFAF77BFF4346AF
:1056200058609C60E7E70E4B98461F605860FC216D
:105630008905301CFBF7D4FA211CFAF76BFF4346AF
:105640009860D8E750060020D7B3DD3FD7B3DDBF61
:10565000586900080000C0BFD7B35D3F70690008FB
:1056600070060020FC218905301CFBF7B9FA211CCB
:10567000FAF750FF104B18605C609F60BBE7FC219D
:105680008905301CFBF7ACFA211CFAF743FF0A4BE3
:1056900018605F609C60AEE7074B98461860FC217D
:1056A0008905301CFBF79CFA211CFAF733FF4346AF
:1056B00058609F609FE7C0467006002070B50C4D93
:1056C0000C4E761BB61005D0002408CD0134984747
:1056D000A642FAD101F066F8074D084E761BB610C7
:1056E00005D0002408CD01349847A642FAD170BDF8
:1056F000606D0008606D0008606D0008686D00084E
:10570000F0B50500830749D0541E002A45D0030098
:105710000326CAB202E00135013C3ED301332A70B0
:105720003342F8D1032C30D9FF220A401502154329
:105730002A0415430F2C34D92700103F3F093E019E
:10574000B4461E001A001036664415605560956018
:10575000D5601032B242F8D101373F01DB190F2773
:105760000C22274022403C00002A0ED03E1FB608E3
:10577000B400A4461A001C1D644420C2A242FCD1FD
:1057800003240136B6009B193C40002C05D0C9B259
:105790001C19197001339C42FBD1F0BD03001400A9
:1057A000C0E72700E2E7C046034B10B5002B02D04C
:1057B000024800F005F810BD00000000D1570008B5
:1057C00010B5010000230022002000F019F810BDE0
:1057D00070B5074D074C641BA41005D0013CA30015
:1057E000EB589847002CF9D100F0E2FF70BDC0469D
:1057F000686D00086C6D00087047C0467047C04671
:10580000F0B5D6464F464646C0B5264F82B0060094
:105810003868924698468946FFF7EEFF224B1B6890
:105820000193A423019A5B00D558002D2ED06C68FB
:105830001F2C30DC002E0FD1631C6B604B460234F2
:10584000A40038686351FFF7D9FF002002B0E0BC24
:10585000BA46B146A846F0BD882251462800A300AA
:10586000EB189950873AA2408930FF300168114304
:1058700001608421404649005850022EDCD12B00A3
:105880008D33FF3319680A431A60D5E715004D358B
:10589000FF35D550CBE73868FFF7B0FF0120404215
:1058A000D4E7C046380400208C69000800B51C4AC3
:1058B000430083B05B08934219DDFF22D205934277
:1058C00004DB011CFBF7B2FA03B000BD694600F02F
:1058D00067F803230199184001280CD0022817D03B
:1058E000002811D00122009800F036FEECE70021DC
:1058F00000F0D0F9E8E70122009800F02DFE8023A7
:105900001B069C466044DFE7009800F0C3F9DBE724
:10591000009800F0BFF980231B069C466044D3E743
:10592000D80F493F00B51D4A430083B05B0893423E
:105930001CDDFF22D205934204DB011CFBF776FA43
:1059400003B000BD694600F02BF80323019918400D
:10595000012810D0022817D0002810D0009800F09D
:1059600099F980231B069C466044E9E70022002148
:1059700000F0F2FDE4E7009800F08CF9E0E7012286
:10598000009800F0E9FDDBE70122009800F0E4FD5B
:1059900080231B069C466044D2E7C046D80F493F8F
:1059A000F0B54E46DE4657464546E0B5AC4B89B0AD
:1059B00046000C00039076089E4200DC71E0A94B83
:1059C0009E4220DCA849002800DC1FE1FBF72EFAEC
:1059D0000F239E43A54B051C9E426ED0A449FBF7A6
:1059E00025FA011C2060281CFBF720FAA049FBF7D0
:1059F0001DFA01256060280009B0F0BCBB46B24624
:105A0000A946A046F0BD9B4B9E4268DDFF23DB0507
:105A10009E424BDAF715863FFD05751B281CFBF7E8
:105A2000B3FBFBF7D1FB011C0590281CFBF7FEF92B
:105A30008721C905FBF7D4F88046FBF7A5FBFBF7E8
:105A4000C3FB011C0690051C4046FBF7EFF98721BC
:105A5000C905FBF7C5F800210790FAF715FD0028E6
:105A600000D1B6E00021281CFAF70EFD4342434165
:105A70000133814A21000192022205A800923A00D6
:105A800000F0D0F9039B0500002BB4DA8022120647
:105A900094462368454263442360636863446360BB
:105AA000A9E70023002508604B60A4E7011CFBF771
:105AB000BDF90025606020609DE77049FBF7B6F9ED
:105AC0006F49051CFBF7B2F9011C2060281CFBF78D
:105AD000ADF96B49FBF7AAF9012560608BE700F08F
